S01300005265616C74696D654543552E7372656301
S21401000000580020110401006D040100C1520300D4
S21401001000000000000000000000000000000000DA
S214010020000000000000000000000000754F030003
S2140100300000000000000000614F0300555103005E
S21401004065BD010075BD010085BD010095BD0100BE
S214010050A5BD01006D0401003D6202004D62020073
S214010060FF5F020055510300E5F101005551030001
S214010070C71502006D040100555103006716020002
S2140100806D040100555103006D0401006D0401006B
S214010090555103006D0401006D0401006D0401005B
S2140100A06D04010045F90100A52D0200B52D0200E1
S2140100B06D0401006D0401006D0401006D04010072
S214010400FFFFFFFFFFFFFFFFFFFFFFFFFE7FFFFF77
S21401041072B610490F4A0F4B0E4C0E4D0D4E0D4F36
S214010420B846B946BA46BB46BC460B490B4A521AB1
S214010430013A05DD0020042308601944043AFBDA7A
S21401044007488546074880470748804762B618F040
S214010450B5F8FEE70000000000000020005800206C
S214010460005800200136010031360100FEE7FEE7A4
S214010470002243088B4274D303098B425FD3030ADD
S2140104808B4244D3030B8B4228D3030C8B420DD3F0
S214010490FF22090212BA030C8B4202D3121209027E
S2140104A065D0030B8B4219D300E0090AC30B8B42BC
S2140104B001D3CB03C01A5241830B8B4201D38B036A
S2140104C0C01A5241430B8B4201D34B03C01A52410F
S2140104D0030B8B4201D30B03C01A5241C30A8B4252
S2140104E001D3CB02C01A5241830A8B4201D38B023D
S2140104F0C01A5241430A8B4201D34B02C01A5241E1
S214010500030A8B4201D30B02C01A5241CDD2C30952
S2140105108B4201D3CB01C01A524183098B4201D3CE
S2140105208B01C01A524143098B4201D34B01C01AB9
S214010530524103098B4201D30B01C01A5241C30831
S2140105408B4201D3CB00C01A524183088B4201D3A0
S2140105508B00C01A524143088B4201D34B00C01A8C
S2140105605241411A00D20146524110467047FFE7F8
S21401057001B5002000F0F0F802BDC0460029F7D012
S21401058076E7704703460B437FD4002243088B422D
S21401059074D303098B425FD3030A8B4244D3030B04
S2140105A08B4228D3030C8B420DD3FF22090212BAC9
S2140105B0030C8B4202D31212090265D0030B8B4245
S2140105C019D300E0090AC30B8B4201D3CB03C01A2F
S2140105D05241830B8B4201D38B03C01A5241430B0A
S2140105E08B4201D34B03C01A5241030B8B4201D3FA
S2140105F00B03C01A5241C30A8B4201D3CB02C01A65
S2140106005241830A8B4201D38B02C01A5241430ADC
S2140106108B4201D34B02C01A5241030A8B4201D3CB
S2140106200B02C01A5241CDD2C3098B4201D3CB0172
S214010630C01A524183098B4201D38B01C01A524121
S21401064043098B4201D34B01C01A524103098B4225
S21401065001D30B01C01A5241C3088B4201D3CB0010
S214010660C01A524183088B4201D38B00C01A5241F3
S21401067043088B4201D34B00C01A5241411A00D2A3
S21401068001465241104670475DE0CA0F00D049420C
S214010690031000D34042534000229C4603098B427C
S2140106A02DD3030A8B4212D3FC22890112BA030A04
S2140106B08B420CD3890192118B4208D38901921186
S2140106C08B4204D389013AD0921100E08909C3090B
S2140106D08B4201D3CB01C01A524183098B4201D30D
S2140106E08B01C01A524143098B4201D34B01C01AF8
S2140106F0524103098B4201D30B01C01A5241C30870
S2140107008B4201D3CB00C01A524183088B4201D3DE
S2140107108B00C01A5241D9D243088B4201D34B00F9
S214010720C01A5241411A00D20146634652415B103B
S214010730104601D34042002B00D54942704763461C
S2140107405B1000D3404201B5002000F005F802BD61
S2140107500029F8D016E770477047C0468446101C3B
S21401076062468C46191C634600E0C0461FB501F080
S2140107709BFF002801D40021C8421FBD10B501F01F
S214010780F5FE4042013010BD10B501F08DFF002886
S21401079001DB002010BD012010BDC04610B501F0E0
S2140107A083FF002801DD002010BD012010BDC046DA
S2140107B010B501F015FF002801DC002010BD012056
S2140107C010BDC04610B501F00BFF002801DA00206D
S2140107D010BD012010BDC0468446081C6146FFE7D7
S2140107E01FB500F0B3FC002801D40021C8421FBD8C
S2140107F010B500F045FC4042013010BD10B500F0C8
S214010800A5FC002801DB002010BD012010BDC0465C
S21401081010B500F09BFC002801DD002010BD012072
S21401082010BDC04610B500F051FC002801DC0020C8
S21401083010BD012010BDC04610B500F047FC0028D1
S21401084001DA002010BD012010BDC046002B11D1D9
S214010850002A0FD1002900D1002802D00021C94367
S214010860081C07B4024802A14018029003BDC04606
S214010870E9FEFFFF03B4684601B5029800F066F88A
S214010880019B9E4602B00CBC7047C046F0B5CE46F2
S214010890474615042D0C2E0080B50704140C3F0C9A
S2140108A09946030C7E435D43674363437F19340CCB
S2140108B0E4199C46A54203D980235B029846C444AA
S2140108C04B46514343433604360C250C24046544F9
S2140108D0A4195918491920000CBC90469946F0BD38
S2140108E09E2110B5C905041CFFF7A6FF002803D1F9
S2140108F0201C00F041FF10BD9E21201CC90500F000
S21401090087FD00F039FF80231B069C466044F2E712
S21401091070B500220C4B04000D00FFF753FF0028B2
S21401092004D12000290002F0B7FC70BD064B00225E
S2140109302000290002F09AF902F0AEFC80231B0683
S2140109409C466044F1E7C0460000E041F0B55746DA
S2140109504E464546DE46E0B5040083B00D0092469D
S21401096099468B422FD82CD04946504602F03CFE81
S21401097029000600200002F037FE331A9846203B75
S2140109809B4600D574E053465A4693401F00534693
S214010990424693401E00AF4229D826D05B46A41B90
S2140109A0BD41002B00DA79E000220023009201937A
S2140109B001235A46934001930123424693400093F4
S2140109C019E08242D0D900220023009201930C9BA9
S2140109D0002B01D01C605D600098019903B03CBCFF
S2140109E090469946A246AB46F0BDA342D6D9002210
S2140109F00023009201934346002BE8D0FB077208C0
S214010A001A4346467B080EE0AB4201D1A2420CD8FF
S214010A10A41A9D41012024196D410021013E24188C
S214010A204D41002E06D0AB42EED9013E24196D4150
S214010A30002EF8D15B460098019900196941002BF8
S214010A4022DB2B005A46D3402A004446E2401C00D3
S214010A505B461500002B2CDB26009E40330026004B
S214010A604746BE403200801A994100900191AEE798
S214010A70424620239B1A5246DA40414613004A4614
S214010A808A4017001F4382E7424620239B1A2A000A
S214010A9046469A402300F3401343D5E742462023B7
S214010AA000219B1A0022009101920122DA40019254
S214010AB082E74246202326009B1ADE402F00B446DA
S214010AC0974066463B003343C9E7C046F0B5C64685
S214010AD04E024702760A7B0A4400C50FF70048001B
S214010AE0984600B5240E2A00DB00000EC90FBC464E
S214010AF08D4267D0221A002A00DCA5E000283AD1F0
S214010B00002F00D193E0511E002900D0BCE0012443
S214010B10DB1B5A0146D59B019E09300002F046FDBB
S214010B2005388640844200DD9DE0041B320020200B
S214010B300134E240041BA64033005E1EB34100248C
S214010B4013435A0704D00F221A40042A00D0043354
S214010B505A0129D50134FF2C00D181E02A009B01DE
S214010B605B0AE4B25B02E405580AD207204310434D
S214010B7004BC9046F0BDFF2CE3D080213800C904A8
S214010B80084384461B2A00DD82E020206146D140CE
S214010B90821A604690400200501E82410A439B1A08
S214010BA05A01B8D45A07CED1DE082A00FF2C3AD112
S214010BB0002E00D1AEE08023DB0333435B025B0AE9
S214010BC0FF24CFE7211A002952DD002831D0FF2C5F
S214010BD0B7D080203E00C0040643B4461B2900DD82
S214010BE0AAE020266046C840711A66468E4031004B
S214010BF04E1EB14101435B185901D3D50134FF2C78
S214010C0000D187E0012278491A405B080B40134364
S214010C1097E7002C00D0A7E0002B00D0B6E03B1EE3
S214010C2062D10026002273025B0AE4B29AE714003E
S214010C3087E7002F4DD0481E002857D16344012472
S214010C405A01AFD50224DDE7002A24D1621CD2B2B4
S214010C50012ADEDDDE1B720135D5FE1A0D005CE7CA
S214010C602A0000237EE73300604A241A134068E70F
S214010C70002963D1611CC8B201284EDDFF2949D085
S214010C8063445B080C005CE7FF2A41D00A0079E761
S214010C9001229B1A84E7002C1DD0FF2822D0802435
S214010CA0E404524223431B2A00DD8AE01C0020256F
S214010CB0D440AA1A93405A1E934123436246040025
S214010CC0D31A0D0025E7002E00D026E700220024C7
S214010CD0A9E70C0035E7002B4DD0D243002AEDD012
S214010CE0FF28E0D16346FF240D002AE7FF290FD035
S214010CF0010073E7002B61D0FF24002F00D120E70D
S214010D0080224146D203114202D0164200D13B0056
S214010D10FF2416E7FF24002324E7002CEAD1002B4A
S214010D2058D0002F00D10CE763445A0100D439E7AC
S214010D302E4A0C00134004E701215CE7002C1ED16B
S214010D40002B40D0C94300290BD0FF2836D01B29E1
S214010D5047DC1C002026CC40711A8B40591E8B4163
S214010D6023436344040047E7002B18D13B1E2DD0D4
S214010D700D00FF24E5E63B0004000D00E1E6FF2838
S214010D801CD08024E40449422343E0E7002F00D12D
S214010D90D7E6DE1B72011FD5FB1A0D00D1E6FF2434
S214010DA0002F00D1CDE680224046D2031042AFD0BC
S214010DB01642ADD13B000D00FF24C2E66346FF2478
S214010DC0BFE601237AE73B000400BAE6802600224C
S214010DD0F603F0E63B00B4E6331E00D0E2E600225E
S214010DE021E70123BDE7C046FFFFFF7DFFFFFFFBB5
S214010DF0F0B557464E46DE464546E0B5440243004A
S214010E00C60F83B00F1C640A1B0EB24653D0FF2BCD
S214010E1027D08022E400D20414437F225242904617
S214010E209844002399469B467D027800FB0F6D0A85
S214010E30000E009324D0FF2846D080230021ED0029
S214010E40DB041D437F384746381A4F460F43BF0021
S214010E50B9463300009A874F53404A46BA58019321
S214010E609746002C4ED108239946F7339846FD3B0A
S214010E709B467D027800FB0F6D0A000E0093DAD1C7
S214010E80002D26D1002001213300009A7A4F5340CD
S214010E904246101A4A460A439200BA581D0097461F
S214010EA0009B2C009A468B465B46022B31D153465B
S214010EB0FF21002438E0002C17D104239946002393
S214010EC0984601339B46AFE7FF20002D0BD1022148
S214010ED0DAE7280002F06AFB431F9D4076235B4257
S214010EE0181A0021AFE70321ADE7200002F05EFBF0
S214010EF0431F9C4076235B421B1A98460023994663
S214010F009B4691E70C239946F3339846FC3B9B4658
S214010F108AE7032B00D1A5E05546012B00D081E0DE
S214010F200123002100242B406402C905600ADB0767
S214010F300843184303B03CBC90469946A246AB46CC
S214010F40F0BD80240023E403FF21EDE7FF21002408
S214010F50EAE70123591A1B2966DD019A134000218D
S214010F600024E1E78023DB031C4238D01D4251D028
S214010F701C436402640A3300FF21D5E763016C0158
S214010F80A3423BD21B260021013801251F00490040
S214010F905B00002F01DB9C4201D81B1B2943013E4D
S214010FA0002EF3D11C00631E9C410C4301007F31CF
S214010FB00029CEDD630704D00F232340042B00D085
S214010FC00434230103D501002C4B80311C40FE293B
S214010FD00DDD0123019AFF2113400024A4E780239D
S214010FE0DB031C436402640A3300FF219CE70123F0
S214010FF0019AA401640AC9B2134095E71B1B1A267D
S2140110000121C2E7009B8B469A4600244CE7630207
S214011010E5D500258024E4032C436402640A009B82
S214011020FF2181E70195C1E723002020CB40411A2B
S2140110308C40611E8C411C43630704D00F23234060
S214011040042B00D00434630105D50123019A012144
S2140110501340002468E70123019AA401640A13409F
S214011060002161E78023DB031C436402640A5346C4
S214011070FF2159E71C4203005C420300FFFFFFF714
S21401108070B5420045024E024C00C30F6D0A120EA7
S214011090760A240EC90F0120FF2A06D0FF2C03D0A2
S2140110A0A24201D1B54206D070BD002DFCD1FF2C65
S2140110B0FAD1002EF8D18B4206D00120002AF3D1B6
S2140110C02800451EA841EFE70020EDE7F0B54200F5
S2140110D045024C02C30F48006D0A120E640A000E48
S2140110E0C90FFF2A1ED0FF2821D0002A0AD16E423E
S2140110F06E41F6B200280FD1002C0DD10020002D34
S21401110009D005E0002801D1002C01D08B4211D076
S214011110012158420843F0BD002EF7D001200139C5
S2140111200843F8E7002DDED002204042F3E7002C0A
S214011130DBD0F9E78242EBDC04DBA542E8D80020ED
S214011140A542E8D20121581E0843E4E7F0B5420063
S2140111504D024C004602760A120EC30F6D0A240E8B
S214011160C90FFF2A16D0FF2C18D0002A0AD17042C8
S2140111707041C0B2002C15D0002805D001200139DD
S2140111800843F0BD002C13D0994214D001205B42D5
S2140111901843F6E70220002EF3D1E4E70220002DE3
S2140111A0EFD1E2E7002DE7D10020002EE9D0EDE7F0
S2140111B0002DE9D1EAE7A24206DCDFDBAE4203D826
S2140111C00020AE42DAD3DCE7012049420843D8E7E3
S2140111D0F8B557464E464546DE46E0B54702460058
S2140111E088467F0A360EC40F002E47D0FF2E24D025
S2140111F0FB008027FF041F43002399469A467F3E43
S21401120043465D025800DB0F6D0A000E984643D038
S214011210FF283BD0EB0080250022ED041D437F38DC
S2140112203618731C41469B464B46614013430F2BB1
S21401123064D875489B00C3589F46002F42D10823A7
S2140112409946063BFF269A46DAE74146022A28D007
S214011250032A00D1CEE0012A00D0ACE011400020E4
S2140112600022CCB24002D205400AE40710432043D4
S2140112703CBC90469946A246AB46F8BD002F15D118
S21401128004239946033B00269A46B9E7FF2002222B
S214011290002DC5D00322C3E7002D19D1002001225D
S2140112A0BEE70124FF220C400020DBE7380002F0F5
S2140112B07DF97626431F9F4000237642361A9946CB
S2140112C09A469DE70C239946093BFF269A4697E7DF
S2140112D0280002F06BF9431F9D4076235B42181AE3
S2140112E000229DE780200024C003FF22BAE73D00CC
S2140112F05246ABE73D0021005246A7E73B0C9C4611
S2140113002A04120C2B0C1400604665463F043F0C61
S2140113107C4342435D437B43270C9B18FF18BA422C
S21401132003D980235B029C46654424043A04240CBA
S214011330121993015C1EA3413F0C920E7D191A43AC
S214011340AD0115432B0104D501235E466A081D40F5
S214011350154332007F32002A25DD6B0704D00F23A8
S2140113602B40042B00D004352B0103D53200274B2C
S21401137080321D40FE2A94DC0124A801400AD2B224
S2140113800C406FE78020C003074207D0054205D115
S21401139028434002400A4446FF2263E7384340029E
S2140113A0400AFF225EE70124A31A1B2B05DD0C4031
S2140113B00022002056E75E46CBE72A002020DA40CE
S2140113C0C31A9D402B005D1EAB4113435A0704D040
S2140113D00F221A40042A00D004335A0104D50124EE
S2140113E001220C4000203DE701249B01580A0C40D5
S2140113F0002237E780200124C00328434002400A28
S2140114000C40FF222EE7C0469C420300FFFFFFF779
S214011410F0B54F46D64646464400C0B5C20F470211
S2140114204802400A844666467B0A4800C90F9A4627
S214011430240E1500DB00000E8946F600FF2800D1B9
S2140114408FE001214F464F403900914266D0221A63
S214011450002A00DC9DE000283DD1002E00D18BE063
S214011460511E002900D0B5E001249B1B5A0144D52A
S2140114709B019F09380002F099F80538874084429D
S21401148000DD96E0041B3A0020200134E240041BF4
S214011490A7403B005F1EBB41002413435A0704D0FC
S2140114A00F221A40042A00D004335A0127D50134EA
S2140114B0FF2C00D179E001229B015B0AE4B22A40AD
S2140114C05B02E405580AD207204310431CBC904631
S2140114D09946A246F0BDFF2CE0D08021C9040E43F8
S2140114E01B2A7BDC31002020D140821A9640721ED6
S2140114F096410E439B1B5A01BAD45A07D0D10122FA
S214011500DF082A40FF2C33D1002F00D1A8E080232A
S214011510DB033B435B025B0AFF24D1E7211A002968
S2140115204CDD00282AD0FF2CB8D08020C00406430A
S2140115301B2900DDAFE030002027C840791A8E4015
S214011540711E8E4106439B195901D6D50134FF2CD5
S21401155000D185E001227A491A405B080B4013430B
S2140115609CE7002E00D070E76BE73B1EC5D100223A
S2140115707B025B0AE4B2A3E714008FE7002E4DD08E
S214011580481E002857D19B1901245A01B5D50224BB
S214011590E0E7002A25D1621CD2B2012A72DD9F1B28
S2140115A07A0135D5F71A0D0064E7012200232A4097
S2140115B086E73B00634A241A13406FE700296CD183
S2140115C0611CC8B201284EDDFF2949D09B195B0872
S2140115D00C0063E7FF2A41D00A0081E701269B1B26
S2140115E089E7002C1CD0FF2821D08024E404524235
S2140115F023431B2A00DD96E01C002025D440AA1AAE
S21401160093405A1E93412343F31A04000D002DE71D
S214011610002F00D02EE700220024A9E70C003DE7AA
S214011620002B58D0D243002AEED0FF28E1D1330058
S214011630FF240D0032E7FF2910D0010078E7002BC8
S2140116406ED0FF24002E00D128E780225146D20317
S214011650114203D06146114200D13300FF241DE739
S214011660FF2400232CE7002CE9D1002B63D0002EA9
S21401167000D113E79B195A0100D43EE7314A0C000A
S21401168013400BE7002C1ED1002B2FD1002E4FD07C
S21401169033000D0002E7012655E7002C1FD1002B71
S2140116A043D0C94300290BD0FF2839D01B2944DC7D
S2140116B01C002027CC40791A8B40591E8B412343AE
S2140116C09B19040040E7002B1AD1002E24D1802755
S2140116D00022FF031BE7330004000D00DEE6FF28AF
S2140116E01ED08024E40449422343DFE7002E00D1C4
S2140116F0D4E69F1B7A0100D437E7F31A0D00CDE636
S214011700FF24002E00D1C9E680225046D2031042A3
S214011710A4D060461042A1D133000D00FF24BDE6DF
S2140117203300FF24BAE601236EE733000400B5E672
S214011730002700221CE73300B0E60123C0E7C046BD
S214011740FFFFFF7DFFFFFFFB42024B024000490007
S214011750520A000E5B0A090EFF2803D00020FF295B
S21401176006D07047FE38002AFBD10020FF29F8D1A9
S2140117701800431E9841F4E741024300C20F490A8C
S2140117801B0E00207E2B0DDD9D2B0CDC8020000423
S2140117900143952B0ADC9620C31AD9404842002AF9
S2140117A000D108007047034BD018FBE7963B9940E1
S2140117B0F4E7C046FFFFFF7F70B5002830D0C3179F
S2140117C0C4185C40C50F200001F0F0FE9E231B1AD2
S2140117D0962B0DDC9622D21A94402A006402640AE3
S2140117E0DBB26402DB05600AD2071843104370BD02
S2140117F0992B19DC9922D21A002A29DD944022005D
S214011800144C1440510704D00F210A40042A00D07A
S2140118100434620113D4A401640ADBB22A00E0E7AF
S214011820002200230024DCE705222100121AD14001
S214011830B922D21A9440621E94410C43DAE7054B52
S2140118402A001C409F23A4011B1A640ADBB2C8E7C6
S2140118502200D5E7FFFFFFFB10B5041E27D001F0DD
S214011860A5FE9E231B1A962B0ADC9622D21A9440BA
S2140118706402640ADBB26402DB05600A184310BD29
S214011880992B17DC9922D21A002A27DD94402200D0
S214011890134C1440510704D00F210A40042A00D0EB
S2140118A00434620112D4A401640ADBB2E3E7002324
S2140118B00024E0E7B9222100D21A91400A00511E05
S2140118C08A410521091ACC401443DBE7044B1C402E
S2140118D09F23A4011B1A640ADBB2CCE72200D7E7D8
S2140118E0FFFFFFFBF8B54546DE4657464E460C035E
S2140118F0E0B54E00C90F88460D00610A440F0C433F
S214011900C70019035800DB0F9B464B0A510F0B43C8
S214011910760D400D1900D200D84500D1AEE0351A3B
S214011920002D00DCF6E000280FD1134300D1DBE0E8
S2140119306B1E002B00D037E1BA1A9742BF41641ADA
S2140119407F42E41B0126170024E0C64B9E424DD081
S21401195080231B041943382D00DD07E11F2D00DD10
S21401196038E12020431B9A460B0050468340994697
S21401197013004846EB401843030050468240501E71
S2140119808241E9401A43BA1A611A9742A4411700E4
S21401199064420C1B230262D56402650A002D00D145
S2140119A0DFE0280001F002FE0300083B1F2B00DDEC
S2140119B0D2E020223C00D21A9D40D4409F402543CD
S2140119C09E4200DDC4E09E1B731C1F2B00DDF1E070
S2140119D0202238002900D21AD840914097402C0086
S2140119E00143781E8741DC4000260F437B0709D060
S2140119F00F233B40042B05D03B1DBB42BF417F421A
S214011A00E4191F0023022CD5964B01369E4200D1C5
S214011A109AE04546944BFF081C4060077605640231
S214011A200743240B760D00212403230B0C0D8F4A4C
S214011A3024051C431440330523435B00ED075B0874
S214011A402B43380019003CBC90469946A246AB464B
S214011A50F8BD6446044300D111E2040067467B07E3
S214011A60C6D145466007FF080743E4087D4B9E4202
S214011A7030D024037605240B760DD4E7331A9A4624
S214011A80002B78DD002831D076488642AED0802003
S214011A90000401435346382B00DCE9E00A43511E9B
S214011AA08A410021D219BA42BF4109197C42170066
S214011AB00C192302D3D56B4B01369E4200D13AE175
S214011AC00120694B1C407B0807401F43E007074382
S214011AD064088BE723003B4300D1CBE1802212034D
S214011AE014432403240B9EE72E007FE708001043CF
S214011AF000D1B4E0581E002800D0DEE0BA18BA4281
S214011B009B4164185B42E418170001262302A6D500
S214011B100226D5E7002D6ED1701C4005400D012828
S214011B2000DCF9E0B81A844687428041E51A404253
S214011B302D1A280200D489E0D71BBA4292411C1BF9
S214011B405242A51AD84629E74546002400276AE7E7
S214011B50454CF61A2C4049E73D00283885400027B9
S214011B602EE7380001F022FD20301DE70A43511E02
S214011B708A41002107E7002B00D0F3E0701C4305E3
S214011B805B0D012B00DCADE0364B984200D1D1E075
S214011B90BA18BA42BF4164187F42E419E7075208EF
S214011BA017436408060021E72E48854200D193E0DA
S214011BB01D00D0E629001F3EF140202B00D18DE00C
S214011BC04022D31A9D402F437D1EAF4100240F4370
S214011BD0002644E72B000800203BD8400300202DB8
S214011BE000D17DE04020451BA9400A43511E8A4191
S214011BF000211A43C7E6002E50D01A4EB04257D0E5
S214011C0080266B429946360434434B46382B00DD1A
S214011C10D6E01F2B00DD35E12026F51A2600AE4062
S214011C20B2463E00DE40AC46350056462E4365467B
S214011C30AF407D1EAF41DC403743D71BBA429241CD
S214011C400C1B5242A41A0600D846A3E66446674611
S214011C502C4300D0A2E600250026002706E71E003A
S214011C60C4E6C046FF070000FFFF7FFFFFFF0F80AF
S214011C701F2B63DC2020C31A080098409C4683462D
S214011C8053461000D84003005846184363469A400E
S214011C90531E9A4153460243D94003E726003E436A
S214011CA006D0EB439946002BC7D0944EB042ACD138
S214011CB00C0017000600D84698E6904B9A450BD0C4
S214011CC08246E7E6002800D09EE01800104300D1C7
S214011CD0E9E01C001700D846884E87E6002572E723
S214011CE0002182E723003B43002E00D0ABE0002B0F
S214011CF000D1E7E00B00134300D177E6BA18BA42E9
S214011D00BF4164187F42E419230200D4F2E07C4B01
S214011D1017001C40060069E620003843002ED1D18A
S214011D2000285BD11C00144300D1A8E01C0017005A
S214011D30D8465BE606000024002797E650460B00CF
S214011D402038C34099465346202B00D195E04023C6
S214011D5050461B1A99400A43511E8A414B460021A0
S214011D601A439FE6002E30D126003E4367D0DB4360
S214011D709A46002B1CD0614EB04260D05346382B99
S214011D8000DD96E01F2B00DD9FE02026F31A2600DB
S214011D909E409C46B34653463E00DE4033005E46B8
S214011DA01E4363469F407B1E9F415346DC4037439C
S214011DB0BF189742924164185242A418060078E66A
S214011DC027437C1EA741002437E74C4EB04236D04D
S214011DD080265B4236049A463443CFE71800104308
S214011DE000D103E6B81A84466745AD41E01A6D4254
S214011DF0401B050200D42CE6D71BBA4292411C1B9D
S214011E005242A41AD846F1E51800104300D163E700
S214011E10F808670707438020E4080003044208D057
S214011E20DD08054205D1D208590711430F002C00E1
S214011E30D8467B0FE4001C43FF00304ED6E50C006D
S214011E4017000600D2E5002B38D00B00134300D153
S214011E5042E7F808670707438020E40800030442C6
S214011E60E7D0CB080342E4D1D208490711430F005B
S214011E701C00DEE700270024D5E500216BE70025DE
S214011E800027F3E54E462500203EF5404B462E0042
S214011E90202B2DD04025ED1AAC4027437C1EA741B0
S214011EA000243743C9E6802400252403134E002767
S214011EB0DCE527437C1EA741002479E70C001700C8
S214011EC00E4E93E50C00170090E556462300203E83
S214011ED0F34099465346202B0ED0402356469B1B73
S214011EE09C4027437C1EA7414B4600241F435FE7C7
S214011EF00024D2E71700B2E50024F2E7FF0700004E
S214011F00FFFF7FFFF0B557464546DE464E46E0B535
S214011F104C000E0387B0834692461D008046360B62
S214011F20640DCF0F002C4FD06F4B9C4235D08023D1
S214011F30420F1B04F600134333439946C3009846E9
S214011F406A4B00269C460023644403932B031B0B19
S214011F509B466B00ED0F50465B0D01955ED0624AC5
S214011F60934253D05A46D1008022400F12040243B6
S214011F700A4393465246D1005C4A94460022634483
S214011F803800684084460290E41A16430F2E00D9A2
S214011F90B4E0574BB6009B599F460300334399461E
S214011FA06CD100239846023308260393CEE7CB462E
S214011FB04146039A0197022A65D1019B4A4C9C46E9
S214011FC00023002298466BE00300334399464ED027
S214011FD0002E00D1BCE1300001F0E8FA03000B3B13
S214011FE01C2B00DDACE11D22D31A5A460100DA4053
S214011FF008398E401300334399465B468B4098461A
S21401200000233C4C0026241A03939FE751465A4668
S214012010114329D1002293460232B1E759460143C2
S2140120201ED05B46002B00D19EE1584601F0BEFA59
S21401203003000B3B1C2B00DD8FE102005946083ADA
S21401204091408B461D21CB1A5146D9400B0059466B
S2140120500B4351469B469140264B00221B1A8FE7A5
S214012060002301229B468BE75146032288E7002383
S2140120709846013304260024039367E70323B146F9
S21401208003930C2662E7032A00D15CE2019B012A36
S21401209000D0E4E113409C46002300240022984629
S2140120A000211203130B0A0D12051A432305124CC5
S2140120B040462240134362465B00D2075B08134347
S2140120C0190007B03CBC90469946A246AB46F0BD07
S2140120D0002380229C4612039846034CE0E7002327
S2140120E0014C00229846DBE7FF07000001FCFFFFDA
S2140120F0DC4203000DFCFFFFFFFF0F80D94500D92E
S21401210039E100D134E1002346464D469A46013C6A
S2140121105B460A0E1B021A430B02170C03931304A9
S2140121201B0C3900280090460193FEF7A1F9020026
S214012130019B83465A43280039009146FEF71EFA52
S214012140350C09040D43A9450DD95B464544013BB1
S214012150A84500D93AE1A94500D837E102235B42F8
S2140121609C464544E3444B46EB1A39001800049359
S214012170FEF77EF9019B0500434339000498994612
S214012180FEF7FCF9330409041B0C0B43994509D9E6
S21401219043446A1E984500D91AE1994500D817E1CB
S2140121A0023D43444A469B1A5A4612042A4303995F
S2140121B09346100C0A0C914609045A46090C4E46E1
S2140121C00D001204120C45430591514372437043AE
S2140121D052190E0CB218954203D980256D02AC46F1
S2140121E06044150C09041204090C2818521883427D
S2140121F000D2CEE000D1C8E01D1A53469E1AB24561
S21401220092415242AB1A9A46984500D117E13900DD
S2140122101800FEF72DF9019B05004343390050468F
S2140122200493FEF7ABF904980B04310C194388426A
S21401223009D941446B1E884500D907E1884200D878
S21401224004E1023D4144049BCB1A18003900049373
S214012250FEF70EF9019B8246434339000498019329
S214012260FEF78CF901980B043104090C19438842D6
S2140122700DD953464144013B884500D9E8E08842E0
S21401228000D8E5E002235B429C464144E244019BC0
S2140122902D04CE1A51462943059D4F462A000B04AC
S2140122A0080C1B0C5A4345437B4378435B19170CB8
S2140122B0FB189D4203D980256D02AC4660441D0C77
S2140122C012041B04120C28189B18864200D293E0B5
S2140122D000D18EE001231943A04BE318002B00DC4C
S2140122E099E04A0700D09EE05A46D20106D55A46E2
S2140122F09B4B1A4080239346DB00E318994A93428E
S21401230068DD0123029A984C1A40002394469846A9
S2140123100022C5E680224B46120313420AD05B46D2
S214012320134206D11A431203120BAC4688468E4C52
S214012330B6E64B461A431203120BBC468A4CAFE66E
S21401234003005A46283B9A4000239146984657E692
S214012350584601F02BF9203040E603005246283B50
S2140123609A400021934677E601F020F920305FE697
S214012370884500D2C7E64B46DE075D0843465B0844
S2140123801E434346DB079A46C2E60025924500D324
S21401239033E7039E5946B446E244B245AD416D4229
S2140123A04544EB180139984507D2984200D97FE099
S2140123B000D1BCE01D1A8B461FE79845FAD1039D54
S2140123C05545F2D943468B461D1A16E79B46CAE683
S2140123D01500E7E65A46C90852070A435B059046C8
S2140123E05C0D5A460123029952021940120B8C4683
S2140123F056E6002B00D16FE746444A1EB04529D960
S2140124001100864200D065E7039A934200D061E747
S21401241062E7012149420120C21A382A21DD029BC6
S21401242003409C4638E60F220A40042A00D15BE7A7
S2140124300A00111D914292415242934454E7474B80
S214012440E318002BE5DD01225242F2E71D00FAE611
S2140124509A461CE7B04239D86ED011003AE702938B
S2140124603AE71F2A3CDC20239B1A0C005846994069
S21401247098404B1E99415B46D440D34020430843C5
S2140124801A00430709D00F230340042B05D001008F
S214012490081D88429B415B42D21813023AD501239C
S2140124A0029A01241A400023944698460022F7E532
S2140124B0022149428C46039DE344AC46E244AA45C8
S2140124C0AD416D424544ED182D1A96E68A1E0399D4
S2140124D04D008D42894149424144761803958FE764
S2140124E01F204042C31A5846D8400300202A28D04D
S2140124F040205D46821A954029434A1E9141194360
S214012500072300220B4009D00F2300220B400800AE
S214012510042BBDD1010053075202120BC9081943FF
S214012520012388460299002419408C46B8E5524595
S214012530BED88B46002560E6039D9D42C6D311009A
S21401254062E70025D8E780225B4612031A43019B07
S2140125501203120B9C468846034CA1E5FF030000BC
S214012560FFFFFFFEFE070000FF070000F0B54F4625
S2140125704646D6465C00C0B51F03DB0F9A46174B8E
S2140125800E034D0084468046360B6D0DC90F9146ED
S2140125903F0B640D01209D4208D09C4201D0A5420C
S2140125A00BD01CBC90469946A246F0BD6346334309
S2140125B0F7D1AC42F5D13A43F3D10120BE42F0D176
S2140125C0C845EED1514507D0002DEAD163461E43DA
S2140125D03000461EB041E4E70020E2E7FF070000B6
S2140125E0F0B54546DE4657464E46E0B51F033D0B61
S2140125F02C4F0E034C00AB465D008446360B640D33
S214012600C90F90466D0DDB0FBC422AD0254FBD4247
S2140126102DD0002C0FD130430700814678427841F7
S214012620C0B2002D17D15F463A4314D14B46002065
S214012630002B0AD006E0002D02D15846024301D0F5
S214012640994218D04842012108433CBC904699461D
S214012650A246AB46F0BD0028F2D00120013B18434C
S214012660F3E737000743D1D002204042EDE75F464B
S2140126701743CED0F8E7AC42E4DC03DA481E01216A
S2140126800843E2E75E45DDD806D000205E45DCD291
S2140126900123481E1843D8E7C445D3D80020C445B3
S2140126A0F6D3D2E7FF070000F0B54E464546DE46B4
S2140126B057465C00E0B51F03DB0F99462A4B0E0315
S2140126C04D00C90F8446360B6D0D8B4690463F0B69
S2140126D0640D9D4220D0244B9C4222D0002D12D165
S2140126E0304343424341DBB2002C1FD0002B0CD0B9
S2140126F04B460120013B034318003CBC90469946DB
S214012700A246AB46F0BD002C16D0CB4517D05B4693
S214012710594201230B43EFE7310002230143EBD17A
S214012720D9E7390002231143E6D1D7E73A43DDD191
S21401273000230028E0D0EAE73A43E6D1E7E7A542DE
S214012740E5DC05DBBE42E2D807D00023BE42D3D289
S2140127505946012301390B43CEE7C445D7D8002398
S214012760C445F5D3C8E7C046FF070000F0B5574695
S2140127704546DE464E46E0B50C0398464E00230B12
S21401278087B0070092469B46760DCD0F002E6BD084
S2140127906D4B9E4235D080245B46420F2404DB00FD
S2140127A014431C43C3009946684BA3469C4600232A
S2140127B000276644029343461C035A00DB0F50462B
S2140127C0240B520D984600D176E05F4B9A426DD0AD
S2140127D08023410F1B040B435C49E4008C461C43D9
S2140127E0C300002062444146B6186940721C01913C
S2140127F0944607430F2F00D9B0E0554ABF00D2597F
S21401280097465B460343994600D087E000239B46E4
S214012810023308270293CEE742460192022867D088
S214012820032800D10EE2012800D062E10023002433
S2140128300022994601990140CDB2002112030B0DE9
S214012840120B1B051343434A240513401C43640023
S214012850ED0764082C434846210007B03CBC90466F
S2140128609946A246AB46F0BD034399464FD05B4618
S214012870002B00D189E1584600F098FE03000B3B7F
S2140128801C2B00DD7AE11D22D31A3A0001005C46BA
S214012890DA4008398C4013008F4023439B46B946E3
S2140128A000232D4E0027361A029384E7534623430E
S2140128B02AD10024022096E75346234320D0002C39
S2140128C000D157E1200000F071FE03000B3B1C2BEA
S2140128D000DD49E11D21CB1A51460200D94053467D
S2140128E0083A944093400C431B4A121A00207AE798
S2140128F00125019B144C1D400023002299469CE7AC
S2140129000024002201206EE7534603206BE70023D4
S2140129109B4601330427002602934CE70323814696
S2140129200C27029347E780220023002512039946CD
S214012930054C82E75C464B4602986FE75C464B4681
S214012940019502986AE7C046FF07000001FCFFFFF9
S2140129501C430300FFFF0F800DFCFFFF4A4649465C
S214012960170C1A0C1B041B0C08041900000C41431D
S2140129701500884619007D43794303958946290049
S214012980150045434D44029545462D0CAA46029D29
S2140129905544A94506D98A46802149028946CA4432
S2140129A051460391290C0491414609042D04090C52
S2140129B088462900250C24044144240C0591210055
S2140129C041438846210079438A466843414650443C
S2140129D08146080C48446F43824503D98021490249
S2140129E089464F44010C89463900494402914146C3
S2140129F00F0404993F0C88460004C01980444146E0
S214012A00049159460F0C0904090C884659438A4615
S214012A1039005143894641464A435146090C8B4683
S214012A207B43D2185A44934203D980235B029B46C8
S214012A30D94451460904090C8A46414661437C4300
S214012A40130C12044B445244A1468A463C004146AC
S214012A506C434D4351464D440F0C7D19A94503D98E
S214012A608021490288464444049F0399B84641445C
S214012A708B468345804141428846514608042F04CF
S214012A80000C3F1858460299101889469042924108
S214012A904F44BA46524299469346C244D144CB4427
S214012AA08F42BF41C245894199459B419345924119
S214012AB07F4249422D0C52420F435B4213437F191A
S214012AC0FF185B463C19DB0D059A64021C43430262
S214012AD013435D1EAB415A46C00D034352021343D6
S214012AE0E20156D501205A0803401343E207134377
S214012AF064085A48604400284DDD5A0709D00F2261
S214012B001A40042A05D01A1D9A429B415B42E418DA
S214012B101300E20104D58020514AC00014406044ED
S214012B20504A904200DDE3E60125DB0862071A43BE
S214012B306402019B9146220B4405640D1D407CE610
S214012B40802259461203114208D0144206D122436C
S214012B501203120B45469946434C6EE65B461A43F2
S214012B601203120B404C68E603005446283B9C4077
S214012B700023B9E600F01AFD2030A6E60300283B44
S214012B809F400023BB4699468AE600F00FFD2030A1
S214012B9074E6B446ADE701252A1A382A06DD019BFC
S214012BA000241D4000230022994646E61F2A21DC08
S214012BB020252000AD1A1E00AB40A840D6405D1E61
S214012BC0AB4130431843D440430709D00F23034099
S214012BD0042B05D00300181D98429B415B42E41864
S214012BE0230221D50125019B01241D40002300223B
S214012BF0994622E61F2521006D42281AC140080089
S214012C00202A1DD05F35AA1A944023435C1EA34197
S214012C10072503431D400022002D09D00F22002462
S214012C201A401800042AD6D1030065076402220B55
S214012C30DB082B4301259946019B00241D40FCE53A
S214012C400024E2E7802201251203224301991203A0
S214012C50120B0D409946044CEFE5C046FF030000F9
S214012C60FFFFFFFEFE070000FF070000F0B5464627
S214012C70D6464F460C03C0B5CD0F4E00610A440F31
S214012C800C43C1005800400D84468A460F001903C4
S214012C90500F490A0143C648760DA846DB0FD200FD
S214012CA0844500D1D8E001204340AB4200D1A6E0E4
S214012CB06046351A002D00DC05E1002810D10B0016
S214012CC0134300D1D7E06B1E002B00D04BE15346D7
S214012CD09F1ABA458041641A4042241A01261EE012
S214012CE0B34B9E4248D080231B041943382D00DD88
S214012CF019E11F2D00DD4CE120230F005B1B1000A6
S214012D009A409F40E840531E9A41E94007431743C3
S214012D105346DF1B611ABA45A44164420C1B2302C9
S214012D2000D4C5E06402650A002D00D1F6E0280053
S214012D3000F03CFC0300083B1F2B00DDE9E02022ED
S214012D403C00D21A9D40D4409F4025439E4200DD60
S214012D50DBE09E1B731C1F2B00DD0AE120223800DE
S214012D60D21A290097402C009140D8407A1E9741EC
S214012D70DC40002601430F437B0709D00F233B406D
S214012D80042B05D03B1DBB42BF417F42E4191F0007
S214012D90230225D5864B01369E4200D1AFE0854BF6
S214012DA001251C4043466207FF0864027605174367
S214012DB0240B760D1D4000212403230B0C0D7E4AA7
S214012DC024051C431440330523435B00ED075B08D1
S214012DD02B43380019001CBC90469946A246F0BD0C
S214012DE0012543466207FF081743E4081D40704B60
S214012DF09E4236D024037605240B760DDBE7634628
S214012E00F31A002B00DC94E06046002835D06848B1
S214012E108642B1D080273F043943382B00DCFDE0E1
S214012E200A43170000217A1E9741574457458041AF
S214012E30091944420C1923023AD55D4B01369E42CC
S214012E4000D14BE101225B4B1C407B0817401F431E
S214012E50E207174364088FE70800104300D024E711
S214012E6021E723003B4300D1B9E18022120314433A
S214012E702403240B9FE72E007EE70800104300D1B1
S214012E80CAE0581E8446002800D0E7E05244524566
S214012E90804164184042241817000126230207D5F2
S214012EA00226CFE764462C4300D1B3E12C006746E7
S214012EB07B0700D062E76307FF081F4301254346EF
S214012EC0E4081D4093E7002D78D1751C6D056D0D46
S214012ED0012D00DCF2E05046801A8245BF41651A9A
S214012EE07F42ED1B8446280200D48CE05046171A18
S214012EF0BA4292410C1B5542651B984614E70125C0
S214012F00434600241D40002755E72A4CF61A2C405C
S214012F1032E73D0028388540002717E7380000F0E3
S214012F2045FB203006E70A43170000217A1E974129
S214012F30EEE6002B00D0E5E0731C9C465B055B0DBE
S214012F40012B00DC9FE01A4B9C4500D1C5E05244A2
S214012F5052458041641840422418E7075208174337
S214012F606408664608E71248854200D185E01D00E0
S214012F70BCE629001F3EF140202B00D17FE0402215
S214012F80D31A9D402F437D1EAF4100240F430026D8
S214012F908EE72B000F00203BDF40202D71D0402311
S214012FA05D1BA9400A43511E8A4100211743AFE623
S214012FB0FF070000FFFF7FFFFFFF0F80002E3ED0C0
S214012FC0B34EB44545D0802636046D423443382D81
S214012FD000DDA8E01F2D00DD1FE12026270050465A
S214012FE0761BB740E84007435046B040461EB04106
S214012FF0EC403843171ABA4292410C1B5242A41AAB
S214013000664698468BE6644667462C4300D08BE6B8
S214013010002500260027EAE61E00ADE61F2B60DC31
S2140130202027F81A0F00844687401000D84007432F
S21401303060468240501E8241D9401743F5E626007D
S2140130405046064305D0ED43002DD3D0904EB445EF
S214013050BDD10C001700664698468DE68C48834223
S2140130600BD06346D9E6002D00D096E00800104349
S21401307000D1E2E00C0017009846854E7CE600255C
S21401308080E700218EE7230050460343002E00D040
S214013090A8E0002B00D1DEE00B00134300D16BE665
S2140130A052445245804164184042241817002302B6
S2140130B000D4FDE6774B66461C405DE6250050468B
S2140130C00543002ECFD1002D4FD10C00144300D163
S2140130D0A0E00C00170098464EE66646002400273E
S2140130E085E61F000800203FF8400700202B00D18E
S2140130F08EE04020C31A99400A43511E8A4100219E
S214013100174392E6002E14D126005046064362D09D
S214013110DB43002B5CD187189742924164185242D8
S214013120A418664687E650462043441EA041002464
S21401313060E7574EB4454ED0802636045B42344392
S214013140382B00DD7FE01F2B00DD8BE020262700DB
S2140131505046F61AB740D84007435046B040461E80
S214013160B0410743DC40BF18D6E70D00154300D138
S21401317002E65046801A8245BF41651A7F42ED1B22
S2140131808446280200D48DE65046171ABA42924168
S2140131900C1B5242A41A9846EEE50D00154300D1C9
S2140131A06BE750466707C00807438020E408000322
S2140131B0044207D0CD08054204D12C009846D70812
S2140131C049070F437B0FE4001C43FF00304ED3E555
S2140131D02F4EB445B4D10C0017006646CCE5002747
S2140131E00024E8E5002B39D00B00134300D144E757
S2140131F0C008670707438020E40800030442E1D0C3
S214013200CB080342DED1D70849070F431C00D9E794
S214013210002171E700250027E9E52E002700203E62
S214013220F740202D2FD04026751BAC40504620433A
S214013230441EA04100243843DCE6802400252403F4
S214013240134E0027D3E5504620430700781E8741DA
S2140132500024BF1860E70C0017008DE50C0017006E
S2140132600B4E89E51E002700203EF740202B0CD090
S2140132704026F31A9C4050462043441EA041074373
S2140132800024BF1848E70024D0E70024F3E7C0462F
S214013290FF070000FFFF7FFF30B5134D0A034B0009
S2140132A0120B5B0DC90F0024AB4210DD0F4CA3427D
S2140132B00FDC80240E4D64032243ED1A1F2D0BDD17
S2140132C00C48C31ADA405442002900D114002000E9
S2140132D030BD094BCC18FAE7084CE840A4466344D5
S2140132E09A400243EFE7C046FE0300001D040000BB
S2140132F03304000013040000FFFFFF7FEDFBFFFF18
S21401330070B5002830D0C317C4185C40C50F200024
S21401331000F04CF9174B184A1B1AD21A1F2A18DD4F
S214013320164AD21A9440002224035B05240B5B0D37
S2140133300021100024030A0D240B12052243104C11
S2140133401B05224013435B00ED075B082B43190066
S21401335070BD210091400A000B21081AC4405B058C
S2140133602403240B5B0DE3E7002500230024002241
S214013370DEE7C0461E04000033040000130400000C
S214013380FFFF0F8010B5041E28D000F00FF9154B73
S214013390154A1B1AD21A1F2A15DD144AD21A94404E
S2140133A0002224035B05240B5B0D0021100024037F
S2140133B00A0D240B120522430D4C1B052240134314
S2140133C05B00590810BD210091400A000B21081A24
S2140133D0C4405B052403240B5B0DE6E700230024B1
S2140133E00022E2E71E04000033040000130400007C
S2140133F0FFFF0F804100090E4B1C70B5DBB2460281
S214013400750AC40F012B14DDE0239B006D07360BF4
S214013410CB1800210A0D280012051C4D32435B050E
S2140134202A405B0813435B00E4075B08234319004B
S21401343070BD002914D1002D1ED0280000F0B6F86A
S2140134400A281CDC0B232A001B1ADA40030015335A
S2140134509D400F4B12031B1A5B05160B5B0DD8E73D
S214013460002D06D0320B802636036D071643094B16
S214013470CFE7084B0026CCE700230026C9E7030068
S2140134802A000B3B9A400025E3E7C046FFFF0F806A
S21401349089030000FF070000F0B54C00640D0B0324
S2140134A0621C450F5B0A52052B43C90FC500520D1E
S2140134B0012A28DD3A4AA618FE2E1BDC002E3EDD28
S2140134C080010200501E82416D0F2A43DB00134328
S2140134D05A0704D00F221A40042A00D0043380224F
S2140134E0D2041A405AD00136FF2E03D09B015B0A44
S2140134F0F4B201E0FF2400235802E405400AC9079C
S21401350020430843F0BD002C07D01D43F2D0802095
S214013510DB0080040343FF26DAE72B4303D00523B1
S214013520DB08FF2C03D05B025B0AE4B2E4E7002B66
S21401353032D08020C00303435B025B0ADCE7320023
S214013540173214DB80221E2712041343BF1B1F2FC2
S2140135500FDC144A944664442A00A5402E00A3407A
S214013560751EAE41FA40334313430026B0E70024EC
S214013570D5E702225242961B1A00F240202F09D0AC
S214013580094884466444A3402B435D1EAB41002694
S21401359013439DE70023F7E70023ADE73400BFE7B9
S2140135A080FCFFFF82FCFFFFA2FCFFFF1C21012322
S2140135B01B04984201D3000C10391B0A984201D310
S2140135C0000A08391B09984201D30009043902A2EE
S2140135D0105C40187047C046040302020101010155
S2140135E0000000000000000010B5002903D1FFF71D
S2140135F0DDFF203002E0081CFFF7D8FF10BDC046F3
S21401360080B500AF064B074A5A60054B5B68044B12
S214013610054A1A60024B054A9A60C046BD4680BDFF
S2140136200020054020C528D920210000FFFF00000A
S21401363080B58EB000AF394B3B63394B3B62394B9B
S2140136407B61394BFB62394BFB61394B3B61394B33
S214013650BB62394BFB60394B7B62394BBB61394BE3
S214013660BB6009E03B6A1A783B6B1A703B6B01330F
S2140136703B633B6A01333B627A693B6A9A42F1D10A
S21401368009E0FB691A78FB6A1A70FB6A0133FB6270
S214013690FB690133FB613A69FB699A42F1D105E0A6
S2140136A0BB6A00221A70BB6A0133BB62FA68BB6A46
S2140136B09A42F5D109E0BB691A787B6A1A70BB6930
S2140136C00133BB617B6A01337B62BA68BB699A428C
S2140136D0F1D1FB1D00221A701B4A1C4B9A4216D0D0
S2140136E000237B630AE0194B7A6B9200D158164B84
S2140136F07A6B9200D1507B6B01337B63144B9B0832
S2140137007A6B9A42EFD3134B0F4A1A6002E0114BC1
S2140137100E4A1A60C046BD460EB080BDC0000020ED
S2140137205C5303004C600300B00D00204C600300A6
S214013730E0600300C0300020FC54002000FCFF1FA6
S214013740E0600300E06003000000002000000100CC
S214013750C000000008ED00E080B584B000AF7860DE
S2140137607A6813009B009B185B00BB600023FB601C
S21401377003E0C046FB680133FB60FA68BB689A4207
S214013780F7D3C046BD4604B080BD000080B582B008
S21401379000AF78607B68002B16DD7B68032B13DC9B
S2140137A07B685A1E0A4B9200D3581A785B781B0224
S2140137B01A4300231204120C1B0C1B041343002192
S2140137C0180001F005F900E0C046BD4602B080BD14
S2140137D0C000002080B582B000AF78607B68002B07
S2140137E016DD7B68032B13DC7B685A1E0A4B92009E
S2140137F0D3581A785B781B021A4300231204120C62
S2140138001B0C1B0413430121180001F0E1F800E032
S214013810C046BD4602B080BDC000002080B582B063
S21401382000AF786001231800BD4602B080BD80B5A8
S21401383088B002AF786008001100FB1C021C1A70E9
S2140138403B000A1C1A807B68002B02D07B68032B86
S21401385002D901235B4271E0FB1C1B780F2B02D9B6
S21401386001235B426AE0FB1C1B781B015AB23B003A
S2140138701B881B0A9BB25BB207210B405BB213434A
S2140138805AB21723FB181A701423FB181722BA18FA
S21401389012781A703B001B88DAB21423FB185A7090
S2140138A01023FB1808221A701023FB1800225A70E6
S2140138B00C23FB1800221A807B681800FFF766FFAE
S2140138C07B681800FFF7AAFF030019001423FA18F3
S2140138D001235B420193022300930023012002F09F
S2140138E02BFE7B681800FFF775FF0120FFF734FFFA
S2140138F07B681800FFF74AFF7B681800FFF78EFF0A
S214013900030018000C23F9181023FA1801235B4250
S2140139100193022300930B000100012002F00CFE2C
S2140139207B681800FFF756FF0C23FB181B781B0259
S2140139301B041B0C0C22BA18527813431800BD4600
S21401394006B080BD80B582B000AF786039607B6814
S214013950002B13D07B68032B10D83B68002B0FD0AD
S2140139603B68062B0CD83B68DBB20133D9B2064A5A
S2140139707B681800FFF75BFFC04602E0C04600E028
S214013980C046BD4602B080BDFF01000080B582B0D2
S21401399000AF786039607B68002B13D07B68032BFF
S2140139A010D83B68002B0FD03B68062B0CD83B6821
S2140139B0DBB20133D9B27B6800221800FFF737FF6C
S2140139C0C04602E0C04600E0C046BD4602B080BD2B
S2140139D080B500AF304BC02292001A602E4BC02239
S2140139E092005A602C4BC02292009A602B4B802288
S2140139F052001A602A4B0121186800F0E9FF284B93
S214013A00186800F0ACFF274B80225200DA60264B84
S214013A100121186800F0DCFF234B186800F09FFFB7
S214013A201E4B80225200DA60204B0121186800F0FC
S214013A30CFFF1E4B186800F092FF184B80225200F1
S214013A405A611B4B0021186800F0C2FF184B18681A
S214013A5000F085FF174B802252005A61164B002159
S214013A60186800F0B5FF144B186800F078FF134B88
S214013A701900012002F0A2FD104B1900012002F0EE
S214013A809DFD0E4B1900012002F098FD00F018F87C
S214013A90C046BD4680BDC04600C0044000D00440BC
S214013AA07C430300009004408043030084430300EA
S214013AB08843030000B004408C4303005C430300CA
S214013AC080B500AF094B0021186800F081FF012086
S214013AD0FFF742FE054B0121186800F079FF01202F
S214013AE0FFF73AFEC046BD4680BDC0468C43030084
S214013AF080B586B002AF78607B68002B45DD7B68B9
S214013B00032B42DC0C23FB1800221A700C23FB1833
S214013B1000225A700823FB1808221A700823FB1883
S214013B2000225A707B681800FFF730FE7B68180089
S214013B30FFF774FE030019000C23FA1801235B42F9
S214013B400193022300930023012002F0F5FC7B6819
S214013B501800FFF73FFE7B681800FFF717FE7B682B
S214013B601800FFF75BFE030019000823FA1801236B
S214013B705B420193022300930023012002F0DCFC48
S214013B807B681800FFF726FE00E0C046BD4604B07D
S214013B9080BD000080B582B000AF3A60FB1D021CFC
S214013BA01A70BB1D0A1C1A70BB1D1B78002B02D095
S214013BB0042B07D009E0074B180013F0A5FA12F002
S214013BC007FF02E012F0D7FEC046C046BD4602B06F
S214013BD080BDC046EC32002090B585B000AF020033
S214013BE0FB1D1A700E23FB1804221A80FB1D1B787E
S214013BF0002B3AD1214B80225200DA61204BC022A1
S214013C0092009A601E4BC0229200DA601D4B002182
S214013C10186800F0DDFE1B4B186800F0A0FE0E23AE
S214013C20FC18194A194B1100180000F0E3F90300BB
S214013C3023800E23FB181B88002B03D00E23FB18B2
S214013C401B8816E00E23FC18114A10480223002197
S214013C5000F086FB030023800E23FB181B88002B35
S214013C6004D00E23FB181B8803E0FEE70E23FB1887
S214013C701B881800BD4605B090BDC04600C0044074
S214013C8000B004409043030094430300C03000207A
S214013C90CC00002090B59BB000AFB9607A603B6065
S214013CA00F23FB18021C1A700F23FB181A78314BCE
S214013CB09200D3587B665C23FB1800221A705C23A3
S214013CC0FB1800225A705C23FB1800229A705C23B2
S214013CD0FB180122DA705C23FB1800221A713B687C
S214013CE0402B01D940233B606223FC185C23FA1861
S214013CF07B6E0121180000F08DFA030023806223F9
S214013D00FB181B88002B03D06223FB181B882DE0B1
S214013D101023FB1818004C231A00002120F06DF820
S214013D201023FB18BA685A603B68D9B21023FB18F7
S214013D30482299543A6879681023FB18083318000A
S214013D4020F052F80C4B00221900002009F090FEDA
S214013D506223FC181023FA187B6E0121180000F06C
S214013D60ADFB030023806223FB181B881800BD46A9
S214013D701BB090BDD4000020953B010090B587B0E4
S214013D8000AF02003960FB1D1A70FB1D1A78214B2B
S214013D909200D3587B610C23FB1800221A700C2367
S214013DA0FB1800225A700C23FB1800229A700C2371
S214013DB0FB180122DA700C23FB1800221A7100216D
S214013DC0002008F027FB00220121002008F062FBFA
S214013DD01223FC183B680C22BA187869002100F0FF
S214013DE0BFFA030023800C4B00221900002009F0C3
S214013DF03FFE1223FC18094A7B690021180000F0D7
S214013E0029FC030023801223FB181B881800BD46DB
S214013E1007B090BDD4000020953B0100EC32002095
S214013E2090B585B000AF02003960FB1D1A70FB1D0E
S214013E301A780A4B9200D358FB600A23FC183A689A
S214013E40FB681100180000F081FC030023800A23A0
S214013E50FB181B881800BD4605B090BDD400002095
S214013E6080B584B000AF0200FB1D1A70FB1D1A78E6
S214013E70064B9200D358FB60FB680121180000F046
S214013E80C1FC03001800BD4604B080BDD40000206C
S214013E9080B584B000AF0200FB1D1A70FB1D1A78B6
S214013EA0064B9200D358FB60FB680021180000F017
S214013EB0A9FC03001800BD4604B080BDD400002054
S214013EC080B582B000AF0200FB1D1A70FB1D1B7887
S214013ED0DBB2002B01D100BEFEE7C046BD4602B0F4
S214013EE080BD80B586B000AFF860B9607A601723F0
S214013EF0FB1800221A7021E01723FB181B78FA68BA
S214013F00D3181B7801225340DBB2002B0FD01723A6
S214013F10FB181B789B00BA68D3187A681A601723B7
S214013F20FB181B78FA68D31801221A700BE01723C6
S214013F30FB181A781723FB1801321A701723FB187F
S214013F401B78012BD8D91723FB181B78012B06D910
S214013F500020FFF7B5FF1723FB1801221A7017235D
S214013F60FB181B781800BD4606B080BD80B584B02E
S214013F7000AF78600F23FB1800221A700FE00F23A2
S214013F80FB181A78134B9200D2587B689A420CD0D1
S214013F900F23FB181A780F23FB1801321A700F2310
S214013FA0FB181B78012BEAD900E0C0460F23FB184B
S214013FB01B78012B06D90020FFF782FF0F23FB1881
S214013FC001221A700F23FB181B781800BD4604B097
S214013FD080BDC0461031002080B582B000AF786049
S214013FE07B680133DB009B0805331800BD4602B031
S214013FF080BD000090B593B000AF786039607B68F3
S2140140005A1E9341DBB21800FFF75AFF3B685A1E4F
S2140140109341DBB21800FFF753FF4623FB1801223A
S2140140201A804523FB1800221A707B681B78002B28
S21401403000D0DFE07B685B685A425341DBB2180070
S214014040FFF73EFF7B685A684523FC186D496E4BA7
S2140140501800FFF746FF030023704523FB181A7864
S2140140606A4B52000021D1543B681A680C23FB1896
S2140140701A603B681A790C23FB189A713B689A7987
S2140140800C23FB181A723B68DA790C23FB18DA71D9
S2140140903B68DA680C23FB181A613B681A690C2323
S2140140A0FB185A613B685A690C23FB189A613B68F6
S2140140B09A680C23FB18DA603B689A690C23FB1894
S2140140C0DA613B681A6A0C23FB185A623B685A6A23
S2140140D00C23FB189A623B689A6A0C23FB18DA6277
S2140140E03B68DA690C23FB181A623B68DA6A0C2310
S2140140F0FB181A633B685A790C23FB185A723B6803
S2140141001B6B002B36D00C23FB1801225A713B681F
S2140141101B6B1A780C23FB181A710C23FB1835221B
S214014120002199540C23FB183422002199540C23A6
S214014130FB181B791800FFF74FFF03005A1C0C23CE
S214014140FB181B689A180C23FB181A604523FB18EA
S2140141501A782E4B52000121D1544523FB181B78A7
S2140141600C22BA181179294A5B00D31801330A1CAC
S2140141701A7011E00C23FB1800225A710C23FB184D
S21401418000221A710C23FB183522002199540C23A6
S214014190FB183422002199547B685B68D8B245230A
S2140141A0FB181A781300DB009B189B00184A9B1813
S2140141B04622BC180C22BA18190008F0FDF90300B3
S2140141C023804623FB181B88002B13D14523FB189D
S2140141D01A780E4B5200D35C002B0BD07B685B68C1
S2140141E0D8B23B681B6B59783B681B6B5B681A003F
S2140141F008F0AEFC4623FB181B881800BD4613B01A
S21401420090BDC04610310020183100202C3100200E
S214014210C830002090B589B000AFF860B9607A6008
S214014220FB685A1E9341DBB21800FFF749FE7B6814
S2140142305A1E9341DBB21800FFF742FE1E23FB18FD
S21401424001221A80FB681B78002B00D07CE0FB68FB
S2140142505B685A425341DBB21800FFF731FEFB6838
S2140142605B681D22BC181800FFF780FE0300237050
S2140142701D23FB181A78384B5200D35C0122534099
S214014280DBB2002B02D1BB68002B01D0012300E07A
S21401429000231A1C01231340DBB21800FFF710FE9F
S2140142A0BA680121002391425B41DBB21800FFF797
S2140142B007FE7B68DA781023FB181A701023FB18A8
S2140142C008225A607B681A781023FB181A727B68DA
S2140142D09A781023FB185A727B685A781023FB18B9
S2140142E09A721023FB180022DA721D23FB181A7823
S2140142F01A4B5100BA688A1892007968D1501D236A
S214014300FB181A78144B5200D35C002B0ED01D23D9
S214014310FB181B78104A5B00D31801331B78180072
S214014320FFF75AFE0200BB689B18BB60FB685B6820
S214014330D8B2BB68D9B21E23FC181023FA18002382
S21401434008F0B8FA030023801E23FB181B88180008
S214014350BD4609B090BDC0462C3100201C3100205E
S21401436090B589B000AFF860B9607A603B60FB68D1
S2140143705A1E9341DBB21800FFF7A2FD7B685A1E56
S2140143809341DBB21800FFF79BFD1E23FB180122A9
S2140143901A80FB681B78002B00D083E0FB685B6803
S2140143A05A425341DBB21800FFF78AFDFB685B688F
S2140143B01D22BC181800FFF7D9FD030023701D232A
S2140143C0FB181A783B4B5200D35C01225340DBB2F8
S2140143D0002B02D1BB68002B01D0012300E0002393
S2140143E01A1C01231340DBB21800FFF769FDBA68F7
S2140143F00121002391425B41DBB21800FFF760FD0B
S2140144007B68DA781023FB181A707B681B78002B00
S21401441001D0402200E008221023FB185A607B6876
S2140144201A781023FB181A727B689A781023FB18E7
S2140144305A727B685A781023FB189A727B681A792D
S2140144401023FB18DA721D23FB181A781A4B510039
S214014450BA688A1892007968D1501D23FB181A7819
S214014460144B5200D35C002B0ED01D23FB181B7877
S214014470104A5B00D31801331B781800FFF7ACFD18
S2140144800200BB689B18BB60FB685B68D8B2BB6860
S214014490D9B21E23FC183B681022BA1808F0C2FADB
S2140144A0030023801E23FB181B881800BD4609B095
S2140144B090BDC0462C3100201C310020B0B58AB01A
S2140144C002AFF860B9607A60FB685A1E9341DBB2AE
S2140144D01800FFF7F5FC7B685A1E9341DBB2180003
S2140144E0FFF7EEFC1E23FB1801221A80FB681B78DF
S2140144F0002B00D0A3E0FB685B685A425341DBB255
S2140145001800FFF7DDFCFB685B681D22BC1818006D
S214014510FFF72CFD030023701D23FB181A784B4B65
S2140145205200D35C01225340DBB2002B02D1BB68A0
S214014530002B01D0012300E000231A1C01231340A5
S214014540DBB21800FFF7BCFCBA68012100239142D8
S2140145505B41DBB21800FFF7B3FC1D23FB181A788A
S2140145603B4B5100BA688A189200D358DA78102368
S214014570FB181A707B6848229B5C1A001023FB18F4
S2140145805A601D23FB181A78314B5100BA688A18F5
S2140145909200D3581A781023FB181A721D23FB18A1
S2140145A01A782B4B5100BA688A189200D3589A7819
S2140145B01023FB185A721D23FB181A78244B51003E
S2140145C0BA688A189200D3585A781023FB189A7240
S2140145D01D23FB181A781E4B5100BA688A189200E0
S2140145E0D3581A791023FB18DA721D23FB181A7890
S2140145F0164B5200D35C002B0ED01D23FB181B78E4
S214014600124A5B00D31801331B781800FFF7E4FC4D
S2140146100200BB689B18BB60FB685B68D8B2BB68CE
S214014620D9B27B685D687B6808331E22BC181022ED
S214014630BA1800932B0008F09BF9030023801E2371
S214014640FB181B881800BD4608B0B0BD2C310020F1
S2140146501C31002090B587B000AFF860B9607A6071
S214014660FB685A1E9341DBB21800FFF729FC7B68F2
S2140146705A1E9341DBB21800FFF722FC1623FB18E3
S21401468001221A80FB681B78002B55D1BA680121DC
S214014690002391425B41DBB21800FFF711FCFB6877
S2140146A05B685A425341DBB21800FFF709FCFB680E
S2140146B05B681522BC181800FFF758FC030023702E
S2140146C01523FB181A78204B5200D35C002B0FD011
S2140146D0BB68002B0CD1FB685B68DBB21622BC18EA
S2140146E07A681100180008F0ABFA0300238023E073
S2140146F01523FB181A78144B5200D35C002B0ED0EE
S2140147001523FB181B78104A5B00D31801331B785E
S2140147101800FFF761FC0200BB689B18BB60FB68D2
S2140147205B68DBB2BA68D1B21622BC187A68180088
S21401473008F050FA030023801623FB181B88180084
S214014740BD4607B090BDC0462C31002090B585B05F
S21401475000AF786039607B685A1E9341DBB218005F
S214014760FFF7AEFB0E23FB1801221A807B681B782D
S214014770002B3DD13A680121002391425B41DBB217
S2140147801800FFF79DFB7B685B685A425341DBB21A
S2140147901800FFF795FB7B685B680D22BC181800B4
S2140147A0FFF7E4FB030023700D23FB181A78144B64
S2140147B05200D35C002B0ED00D23FB181B78104A39
S2140147C05B00D31801331B781800FFF705FC0200C5
S2140147D03B689B183B607B685B68DBB23A68D2B289
S2140147E00E217C181100180008F01CFD0300238020
S2140147F00E23FB181B881800BD4605B090BDC046A9
S2140148002C31002090B585B000AF786039607B68A8
S2140148105A1E9341DBB21800FFF752FB0E23FB181A
S21401482001221A807B681B78002B40D13A6801214F
S214014830002391425B41DBB21800FFF741FB7B6826
S2140148405B685A425341DBB21800FFF739FB7B68BD
S2140148505B680D22BC181800FFF788FB0300237065
S2140148600D23FB181A78154B5200D35C002B11D080
S2140148703B68002B0ED00D23FB181B780F4A5B00FC
S214014880D31801331B781800FFF7A6FB02003B681C
S2140148909B183B607B685B68DBB23A68D2B20E213C
S2140148A07C181100180008F07BFC030023800E23FF
S2140148B0FB181B881800BD4605B090BD2C310020A2
S2140148C080B582B000AF0200FB1D1A70FB1D1B787D
S2140148D0042B00D900BEFB1D1A78034B9200D35857
S2140148E01800BD4602B080BDC801002080B582B068
S2140148F000AF0200FB1D1A70FB1D1B78042B00D9AC
S21401490000BEFB1D1A78034B9200D3581800BD4613
S21401491002B080BDDC01002080B584B000AF3B1D35
S214014920188039603B1D1B781800FFF7C9FF03008C
S214014930BB600023FB603B68002B01D00323FB60B8
S2140149403B1D5B789B001A00BB68D318FA68802170
S21401495049000A431A60C046BD4604B080BD80B512
S21401496084B000AF3B1D18803B1D1B781800FFF775
S214014970BDFF0300FB60FB681433FA68143212684B
S214014980391D49780800012181400A431A60C04652
S214014990BD4604B080BD80B584B000AF3B1D188015
S2140149A03B1D1B781800FFF7A1FF0300FB60FB68A7
S2140149B01433FA6814321268391D49780800012147
S2140149C08140C9430A401A60C046BD4604B080BD56
S2140149D080B584B000AF3B1D188039603B1D1B7845
S2140149E01800FFF783FF0300BB600423FB603B68EE
S2140149F0002B02D00423FB6001E00823FB60BA68A9
S214014A00FB68D3183A1D5278110001228A401A60B9
S214014A10C046BD4604B080BD80B500AFC046BD46A9
S214014A2080BD000080B500AF2D4B1B78002B08D150
S214014A302C4B18682C4B1B781922190000F05AF8D9
S214014A402EE0274B1B78072B08D8264B1868264BD9
S214014A501B780022190000F04DF821E0234B1B685B
S214014A60002B1DD0214B1B681B681D4A12781100B4
S214014A701F22521A012191400A00134008D0194BF7
S214014A801868194B1B784B22190000F033F807E021
S214014A90144B1868144B1B781922190000F02AF8D9
S214014AA00F4B1B780133DAB20D4B1A700C4B1B7887
S214014AB0202B0BD10A4B00221A7080239B00190071
S214014AC001200CF021FB0A4B00221A7080239B0068
S214014AD0190001200CF06CFCC046BD4680BDC046E6
S214014AE038310020080200200C020020343100205A
S214014AF03931002080B588B002AFF8607A600B23A8
S214014B00FB180A1C1A707B68002B0CD10B23FB18B0
S214014B101978F868012301930023009300230022EB
S214014B200CF0B4FF22E07868FCF796FE031C8E2199
S214014B30C905181CFCF74CFB031C0E49181CFCF796
S214014B4057F9031C7B617869FBF7CAFE03009BB229
S214014B50013B9AB20B23FB181978F86801230193DD
S214014B6000230093130000220CF090FFC046BD46C0
S214014B7006B080BD0000C84280B584B000AFB96001
S214014B807A603B600F23FB18021C1A70C046BD46B4
S214014B9004B080BD80B584B000AFB9607A603B6078
S214014BA00F23FB18021C1A700F23FB181B78002B0F
S214014BB005D00F23FB181B78180001F0A3FCC04694
S214014BC0BD4604B080BD80B584B000AF7860396062
S214014BD07B68FB6002E0FB680133FB60FB681B78C7
S214014BE0002B04D03B685A1E3A60002BF3D1FA68BA
S214014BF07B68D31A1800BD4604B080BD80B582B06C
S214014C0000AF0200FB1D1A70FB1D1B782F2B05D968
S214014C10FB1D1B78392B01D8012300E000231A1C49
S214014C2001231340DBB21800BD4602B080BD80B53B
S214014C3084B000AF78600023FB600EE0FA681300D2
S214014C409B009B185B0018007B681B68591C7A68E0
S214014C5011601B78C318303BFB607B681B681B78B0
S214014C601800FFF7CBFF031EE8D1FB681800BD460E
S214014C7004B080BD90B587B000AFF860B9607A60C7
S214014C803B607B683B617B6B0222134024D17B6BCC
S214014C900122134020D1FB6A7B610AE07A68531C2B
S214014CA07B603B68B968FC682020A0477B690133BC
S214014CB07B617A693B6B9A42F0D30DE0FB6A013B5C
S214014CC0FB62BA6AFB6AD31818787A68531C7B6051
S214014CD03B68B968FC68A047FB6A002BEED17B6B8A
S214014CE0022213400ED007E07A68531C7B603B68B3
S214014CF0B968FC682020A0477A683B69D21A3B6BEA
S214014D009A42F1D37B681800BD4607B090BD90B5B6
S214014D1089B004AFF860B9607A603B60BB6B022271
S214014D20134034D17B6B002B17D0BB6B0122134091
S214014D3013D02823FB181B78002B03D1BB6B0C2246
S214014D4013400AD07B6B013B7B6306E07B6A5A1CEF
S214014D507A623A6AD31830221A707A6A3B6B9A42A0
S214014D600AD27B6A1F2BF1D906E07B6A5A1C7A624B
S214014D703A6AD31830221A70BB6B0122134006D050
S214014D807A6A7B6B9A4202D27B6A1F2BEDD9BB6B88
S214014D901022134056D0BA6B8023DB00134016D185
S214014DA07B6A002B13D07A6A3B6B9A4203D07A6AED
S214014DB07B6B9A420BD17B6A013B7B627B6A002B41
S214014DC005D0FB6A102B02D17B6A013B7B62FB6A32
S214014DD0102B0ED1BB6B202213400AD17B6A1F2BEE
S214014DE007D87B6A5A1C7A623A6AD31878221A70F4
S214014DF01EE0FB6A102B0ED1BB6B202213400AD09B
S214014E007B6A1F2B07D87B6A5A1C7A623A6AD318C8
S214014E1058221A700CE0FB6A022B09D17B6A1F2B01
S214014E2006D87B6A5A1C7A623A6AD31862221A70CA
S214014E307B6A1F2B06D87B6A5A1C7A623A6AD31899
S214014E4030221A707B6A1F2B23D82823FB181B7865
S214014E50002B07D07B6A5A1C7A623A6AD3182D2235
S214014E601A7016E0BB6B0422134007D07B6A5A1CEB
S214014E707A623A6AD3182B221A700AE0BB6B0822B0
S214014E80134006D07B6A5A1C7A623A6AD3182022EB
S214014E901A703C687A68B968F868BB6B03937B6BD9
S214014EA002937B6A01933B6A00932300FFF7E2FEBD
S214014EB003001800BD4605B090BD90B597B008AF89
S214014EC0F860B9607A603B6000237B63BB6C002BA3
S214014ED003D1FB6D10229343FB65FA6D8023DB0043
S214014EE0134002D0BB6C002B34D0BB6C396D18005C
S214014EF0FBF744FB0B001A003323FB181A707B6B7D
S214014F005A1C7A633322BA181278092A05D8332232
S214014F10BA1812783032D2B20DE0FA6D20210A406A
S214014F2001D0412200E06122332179180978521814
S214014F30D2B20A3AD2B210217918CA54396DB86C75
S214014F40FBF796FA0300BB64BB6C002B02D07B6BAD
S214014F501F2BCAD93C687A68B968F868FB6D069356
S214014F60BB6D05937B6D04933B6D03934C23FB183C
S214014F701B7802937B6B01931023FB18009323008D
S214014F80FFF7C5FE03001800BD460FB090BDB0B5D3
S214014F9096B008AFF860B9607A603B6000237B6327
S214014FA0BB6CFA6C134303D1BB6E10229343BB66F2
S214014FB0BA6E8023DB00134003D0BB6CFA6C13433C
S214014FC03DD0B86CF96CBA6DFB6DFBF73FFC1C006D
S214014FD01300190022003323FB180A1C1A707B6B7E
S214014FE05A1C7A633322BA181278092A05D8332252
S214014FF0BA1812783032D2B20DE0BA6E20210A40C9
S21401500001D0412200E06122332179180978521833
S214015010D2B20A3AD2B210217918CA54BA6DFB6DCF
S214015020B86CF96CFBF712FC03000C00BB64FC6463
S214015030BB6CFA6C134302D07B6B1F2BC1D9BB6DC3
S2140150403D687C68B968F868BA6E06927A6E059211
S2140150503A6E049203935023FB181B7802937B6BE2
S21401506001931023FB1800932B002200FFF74FFE3D
S21401507003001800BD460EB0B0BD0000F0B59DB0EF
S21401508006AFF860B9607A603B6000237B65002359
S2140150900024BB63FC633A6F7B6F386F796FFBF755
S2140150A06DFB031E12D13C687A68B968F8688023E4
S2140150B0FB181B680393FB6F029303230193C44BF6
S2140150C000932300FFF7D6FD03001DE201225242A2
S2140150D0C04B386F796FFBF757FB031E12D03C6845
S2140150E07A68B968F8688023FB181B680393FB6F1E
S2140150F0029304230193B84B00932300FFF7BAFDF4
S214015100030001E201225242B44B386F796FFBF77C
S2140151104FFB031E24D08023FB181B680422134078
S21401512001D0AF4B00E0AF4B8022BA1812680421C1
S2140151300A4001D0042200E003223E687D68BC6874
S214015140F8688021791809680391F96F0291019234
S214015150009333002A002100FFF78CFD0300D3E102
S2140151600022A14B386F796FFBF722FB031E07D194
S21401517000229E4B386F796FFBF706FB031E14D097
S2140151803D687A68B968F8688023FB181B68049341
S214015190FB6F0393BB6F02933B6F7C6F009301948D
S2140151A02B0000F0B5F90300AEE15323FB180022F3
S2140151B01A7000220023386F796FFBF7E5FA031E99
S2140151C00DD05323FB1801221A703A6F7B6F002013
S2140151D00021FDF74BFD03000C003B677C67802335
S2140151E0FB181A688023DB0013400CD10623BB672B
S2140151F009E07B6D5A1C7A651022BA183021D15409
S214015200BB6F013BBB677B6D1F2B02D8BB6F092BA6
S214015210EFD8386F796FFEF73FF80300FB64F86C40
S214015220FEF76EF803000C001A002300386F796F42
S214015230FDF71CFD03000C00180021006C4ABB6F33
S214015240DB00D3185C681B681A002300FDF78EFA92
S21401525003000C003B637C63386B796BFBF758FBF0
S2140152600300BB64B86CFEF78DF803000C001A004F
S2140152702300386B796BFDF7F9FC03000C00BB6368
S214015280FC6300225B4BB86BF96BFBF791FA031ECC
S21401529017D0BB6C0133BB64B86CFEF773F8544A85
S2140152A0BB6FDB00D3185C681B681A002300FBF792
S2140152B089FA031E17D00023BB64FB6C0133FB6421
S2140152C011E000224B4BB86BF96BFBF75DFA031E3E
S2140152D009D1BB6C002B03D0BB6C0122134002D05A
S2140152E0BB6C0133BB64BB6F002B31D1F86CFEF78E
S2140152F007F803000C001A002300386F796FFDF7DA
S214015300B5FC03000C00BB63FC6301231C1C0022DC
S214015310384BB86BF96BFBF737FA031E01D1002344
S2140153201C1CE3B201225340DBB2002B07D1002242
S214015330304BB86BF96BFBF73BFA031E46D0FB6CA0
S2140153400122134000D170E0FB6C0133FB646CE07A
S214015350BB6F7B641BE07B6C013B7B647C6D631CD9
S2140153607B65BB6C0A211800FBF708F90B00DBB262
S2140153703033DAB21023FB181A55BB6C0A21180019
S214015380FBF776F80300BB64BB6C002B03D07B6D88
S2140153901F2BE0D908E0C04606E07B6D5A1C7A65F3
S2140153A01022BA183021D1547B6D1F2B04D87B6C88
S2140153B05A1E7A64002BF0D17B6D1F2B35D87B6D7E
S2140153C05A1C7A651022BA182E21D1542DE0C046F7
S2140153D00C3E0300FFFFEFFF103E0300FFFFEF7FD1
S2140153E0183E0300203E030065CDCD4165CDCDC1FD
S2140153F0B04503000000E03F7C6D631C7B65FB6CE1
S2140154000A211800FBF7A4F90B00DBB23033DAB23D
S2140154101023FB181A55FB6C0A211800FBF7B2F88B
S2140154200300FB64FB6C002B03D07B6D1F2BE3D9C1
S21401543000E0C0468023FB181B680222134025D1DA
S2140154408023FB181B68012213401FD0FB6F002B23
S21401545015D05323FB181B78002B05D18023FB188E
S2140154601B680C2213400AD0FB6F013BFB6706E06A
S2140154707B6D5A1C7A651022BA183021D1547A6D88
S214015480FB6F9A4202D27B6D1F2BF1D97B6D1F2BCE
S21401549027D85323FB181B78002B07D07B6D5A1C8B
S2140154A07A651022BA182D21D1541AE08023FB18F0
S2140154B01B680422134007D07B6D5A1C7A651022A4
S2140154C0BA182B21D1540CE08023FB181B68082244
S2140154D0134006D07B6D5A1C7A651022BA1820211B
S2140154E0D1543C687A68B968F8688023FB181B6851
S2140154F00393FB6F02937B6D01931023FB180093BC
S2140155002300FFF7B7FB03001800BD4617B0F0BD38
S214015510F0B5A5B006AFF863B9637A633B63902331
S214015520FB181A685B689021791808684968FBF7C8
S21401553025F9031E15D001225242DF4B902179181E
S21401554008684968FBF734F9031E0AD10122524262
S214015550DA4B9021791808684968FBF715F9031E9C
S2140155601AD03D6B7A6BB96BF86BA023FB181B68DE
S21401557004939C23FB181B6803939823FB181B6852
S21401558002939023FB185C681B68009301942B0020
S214015590FFF774FD030082E23B233022BA18D418C9
S2140155A00123FB71002200239021791808684968BD
S2140155B0FBF7EAF8031E01D10023FB71FB79237088
S2140155C03B2330229446BC4463441B78002B0ED008
S2140155D09023FB181B689022BA1813609423FB18BB
S2140155E01A6880231B0653409422BA181360A0231E
S2140155F0FB181A688023DB00134003D10623982288
S214015600BA1813609023FB185C681B683B647C64C3
S2140156103B6C7C6C230D3B6200237B623B6A5B0523
S2140156205B0DA74A944663447B663B6C7C6C002208
S214015630190091430D0023031E0B00232B43BB616E
S214015640A04B3343FB61BB69FC693B647C64786EA9
S214015650FDF756FE9C4A9D4BFDF788F803000C00AB
S214015660180021009A4A9B4BFCF73CF903000C00FA
S2140156701D002600386C796C0022974BFDF7F6FA70
S21401568003000C0018002100944A954BFDF76EF8B4
S21401569003000C001A00230028003100FCF722F951
S2140156A003000C0018002100FDF7F6FD03007B67E0
S2140156B0786FFDF725FE8B4A8B4BFDF757F80300F5
S2140156C00C00180021000022884BFCF70BF90300A0
S2140156D00C0018002100FDF7DFFD03007B66786FE4
S2140156E0FDF70EFE824A834BFDF740F803000C00DF
S2140156F025001C00786EFDF703FE7F4A7F4BFDF701
S21401570035F802000B0020002900FDF7AFFA030070
S2140157100C00BB65FC65BA6DFB6DB86DF96DFDF7E8
S21401572025F803000C003B657C657B6E744A944645
S21401573063443B61DB177B613B691B05FB60002310
S214015740BB60BB68FC683B647C643C6C7D6CB86D7C
S214015750F96D02000B00FCF7C5F802000B003A6277
S2140157607B62BA6DFB6D00208021C905FDF77EFACC
S21401577002000B00BA61FB610022624B386D796D45
S214015780FCF7C0FB02000B001000190000225E4B64
S214015790FCF7A8F802000B00386D796DFCF7B2FB38
S2140157A002000B00100019000022584BFCF79AF873
S2140157B002000B00386D796DFCF7A4FB02000B00AC
S2140157C0B869F969FCF78EF802000B00386A796A45
S2140157D0FCF798FB02000B00100019000022394B61
S2140157E0FCF780F802000B0020002900FCF7BEFF42
S2140157F003000C003B647C64386C796C9023FB18C6
S2140158001A685B68FAF7D4FF031E0CD07B6F013B66
S2140158107B67386C796C00223B4BFCF773FB03000B
S2140158200C003B647C647B6F632B04DC7B6F63330F
S21401583001DB042300E005233B67A023FB181A685D
S21401584080231B01134000D17BE0314A314B90216C
S214015850791808684968FAF7B5FF031E5ED000227A
S2140158602D4B9021791808684968FAF78DFF031EB9
S21401587054D09823FB181A687B6F9A4209DD982347
S214015880FB181A687B6FD31A013B9822BA1813606B
S21401589003E000239822BA181360A023FB181B68A4
S2140158A08022D2001343A022BA18136000233B675C
S2140158B000237B6745E0C046FFFFEF7FFFFFEFFF5A
S2140158C001FCFFFF0000F03FFB799F501344D33FDC
S2140158D0B3C8608B288AC63F0000F83F61436F63F8
S2140158E0A787D23F71A379094F930A400000E03F92
S2140158F01655B5BBB16B0240EF39FAFE422EE63FB4
S214015900FF03000000002C40000024400000184067
S2140159102D431CEBE2361A3F80842E419823FB1858
S2140159201B68002B0DD0A023FB181A688023DB0010
S214015930134006D09823FB181B68013B9822BA181F
S21401594013609C23FB181B68FB669C23FB181A68D4
S2140159503B6F9A4204D9FA6E3B6FD31AFB6601E09D
S2140159600023FB66A023FB181B680222134004D009
S2140159703B6F002B01D00023FB667B6F002B0FD003
S2140159803B6C7C6C1A0023009021791808684968E2
S214015990FCF7B8FA03000C009022BA1813605460A2
S2140159A07B6BFB643B2330229446BC4463441B78E8
S2140159B0002B0BD09023FB181B68BB629423FB18AB
S2140159C01B68802212065A40FA6205E09023FB18F3
S2140159D05C681B68BB62FC62A023FB181B68324A2A
S2140159E013403C6B7A6BB96BF86B0493FB6E0393B5
S2140159F09823FB181B680293BD6AFE6A0095019600
S214015A002300FFF73BFB03007B633B6F002B45D076
S214015A10A023FB181B682022134001D0452000E07C
S214015A2065207A6B531C7B633B6BB96BFC6BA047A1
S214015A307B6FDA179B1853409C467B6FDB0FDBB2FC
S214015A403A6F013A3E6B7D6BBC6BF86B0521059195
S214015A500492002203920A22029201936346009363
S214015A6033002A002100FFF728FA03007B63A023F6
S214015A70FB181B680222134010D007E07A6B531CF8
S214015A807B633B6BB96BFC6B2020A0477A6BFB6C8E
S214015A90D21A9C23FB181B689A42EFD37B6B180023
S214015AA0BD461FB0F0BDC046FFF7FFFFF0B5C646C6
S214015AB000B5A6B00AAF78623962FA61BB6100230D
S214015AC0FB653B6A002B01D000F026FCD04B7B62C5
S214015AD000F022FCBB691B78252B0DD0BB6918781A
S214015AE0FA6D531CFB65FB69396A7C6AA047BB6982
S214015AF00133BB6100F010FCBB690133BB610023BD
S214015B00FB66BB691B78203B102B36D89A00C14B2D
S214015B10D3181B689F46FB6E01221343FB66BB69C5
S214015B200133BB6101233B662AE0FB6E022213436D
S214015B30FB66BB690133BB6101233B6620E0FB6E5C
S214015B4004221343FB66BB690133BB6101233B6639
S214015B5016E0FB6E08221343FB66BB690133BB618B
S214015B6001233B660CE0FB6E10221343FB66BB6908
S214015B700133BB6101233B6602E000233B66C0465E
S214015B803B6E002BBDD10023BB66BB691B7818009A
S214015B90FFF734F8031E07D01823FB181800FFF789
S214015BA046F80300BB661CE0BB691B782A2B18D19C
S214015BB08823FB181B681A1D882179180A601B6840
S214015BC0BB64BB6C002B07DAFB6E02221343FB6639
S214015BD0BB6C5B42BB6601E0BB6CBB66BB69013359
S214015BE0BB6100237B66BB691B782E2B2BD1FB6E1A
S214015BF08022D2001343FB66BB690133BB61BB69DC
S214015C001B781800FEF7FAFF031E07D01823FB18AF
